:100000000C9434000C9451000C9451000C94510049
:100010000C9401010C9451000C9451000C94650156
:100020000C9451000C9451000C9451000C942F012D
:100030000C9451000C9451000C9451000C945100FC
:100040000C9451000C9451000C9451000C945100EC
:100050000C9451000C94A6010C9451000C94510086
:100060000C9451000C94510011241FBECFEFD4E02A
:10007000DEBFCDBF11E0A0E0B1E0E8E2FAE002C0EF
:1000800005900D92A03FB107D9F722E0A0EFB1E0B3
:1000900001C01D92A430B207E1F70E94CC020C947B
:1000A00012050C94000085B1896385B92A988BB13B
:1000B000806C8BB908952D9A85B1827E85B95E9A40
:1000C0005F98089585B1856385B92B985F9A5E988E
:1000D000089585B1846385B985B1867F85B98BB173
:1000E000806C8BB9089585B18C6285B985B18E7E9F
:1000F00085B95E9A5F98089585B18C6185B985B19F
:100100008E7D85B98BB1806C8BB9089585B18D6179
:1001100085B92D988BB1806C8BB9089585B18063BA
:1001200085B985B1827F85B95E9A5F98089585B15A
:100130008D6385B98BB1806C8BB9089585B18D6362
:1001400085B928988BB1806C8BB9089588B1886186
:1001500088B942988BB18D618BB9089588B1837E3F
:1001600088B98BB185608BB98BB1877E8BB90895C7
:1001700088B1846188B943988BB189618BB95A98E9
:10018000089588B1846188B943988BB18D608BB92B
:100190005C98089588B18C6088B944988BB185606B
:1001A0008BB98BB1877E8BB9089588B18C6188B982
:1001B0008BB18C608BB98BB18E7E8BB9089588B171
:1001C0008C6188B98BB18C618BB95898089588B1CE
:1001D000837F88B9449A8BB185608BB98BB1877E58
:1001E0008BB9089588B18C6188B98BB18D618BB959
:1001F000089588B18C6188B98BB18D608BB95C989A
:1002000008951F920F920FB60F9211248F93309B77
:1002100020C080910302882319F08130D1F40DC0F1
:100220008091FF018336A8F48091FF018F5F809356
:10023000FF0181E08093FE010CC08091FF018823C3
:1002400041F08091FF0181508093FF0181E0809314
:10025000FE018F910F900FBE0F901F9018951F9267
:100260000F920FB60F9211248F939F93EF93FF93EA
:1002700080910302982F9250923048F48091F201BD
:100280009091F301909389008093880015C082308B
:1002900098F48091FE01882379F0E091FF01F0E06D
:1002A000EE0FFF1FE85DFE4F8081918190938900E2
:1002B000809388001092FE01FF91EF919F918F91A2
:1002C0000F900FBE0F901F9018951F920F920FB6B0
:1002D0000F9211242F933F934F935F936F937F93CC
:1002E0008F939F93AF93BF93EF93FF9385E00E940B
:1002F000D5049093F5018093F4018091F601882351
:10030000A1F08091F7018F5F8093F7019091F70141
:100310008BEA989F812D11248695282F220F820F1A
:10032000981B9093F7011092F601FF91EF91BF9106
:10033000AF919F918F917F916F915F914F913F917D
:100340002F910F900FBE0F901F9018951F920F9234
:100350000FB60F9211242F933F934F935F936F9398
:100360007F938F939F93AF93BF93EF93FF9380916E
:10037000030282508230F8F48091F8018823D9F08A
:1003800080E00E94D5049093F3018093F201809164
:10039000F2019091F301925000249695879507946D
:1003A000969587950794982F802D9093FD018093C3
:1003B000FC011092F801FF91EF91BF91AF919F91D5
:1003C0008F917F916F915F914F913F912F910F90FE
:1003D0000FBE0F901F901895811103C01092FF015E
:1003E00005C0813019F483E68093FF0181E080939A
:1003F000FE010895CF93DF9385E00E94D50490938A
:10040000F5018093F4018091F4019091F5018C3213
:10041000914040F51092030280E00E94EC01C091EF
:10042000FF01DDECCD9FD12D1124D695D695D69523
:10043000AD2FB0E0AA0FBB1FAC5EBE4FED91FC919B
:100440000995DD0F8D2F880F880FD80FCD1BEC2F4E
:10045000F0E0EE0FFF1FE050FF4F0190F081E02D24
:10046000099559C08091F4019091F5018D32914028
:1004700078F18091F4019091F5018835924040F532
:1004800081E0809303020E94EC01C091FF01DDEC4A
:10049000CD9FD12D1124D695D695D695AD2FB0E010
:1004A000AA0FBB1FAC5EBE4FED91FC910995DD0F0D
:1004B0008D2F880F880FD80FCD1BEC2FF0E0EE0F9B
:1004C000FF1FE050FF4F0190F081E02D099523C000
:1004D0008091F4019091F5018935924058F0809116
:1004E000F4019091F5018235934020F482E08093ED
:1004F000030211C08091F4019091F501833593407E
:1005000050F08091F4019091F5018F3F934018F4E1
:1005100083E080930302DF91CF91089584B7897FB0
:1005200084BF2AE088E190E00FB6F894A895809304
:1005300060000FBE20936000A89588E00E945704D9
:1005400083EC99E00197F1F700C000000E94BE041F
:100550000E94AC04E8E6F0E0808182608083ECE6F3
:10056000F0E08081816080833D98459A3998419A76
:10057000389889EF90E00197F1F700C0000084B14E
:100580008D6384B987B18C6187B98AB18FEF8AB9DD
:100590000E94FA01A89508950E948E0299249394CE
:1005A0000F2EF0E0EF2EF2E0FF2EF02D0F2EF3E3F2
:1005B0002F2EF02D0F2EFDEC5F2EF02DC2E0D2E09D
:1005C0000F2EF9E03F2EF02D0F2EF9E26F2EF02DB9
:1005D0000F2EF9E14F2EF02D0F2EF6E6CF2EF2E082
:1005E000DF2EF02D0F2EF9E0AF2EB12CF02D8091E3
:1005F000F801811134C0A091FA01B091FB01409142
:10060000FC015091FD012EEF30E00E940B058A01A4
:10061000222717FD2095322F000F111F221F331F95
:10062000DC01CB01800F911FA21FB31FAC01BD01E4
:1006300040585F4F6F4F7F4FDB01CA0122F481505A
:100640009F4FAF4FBF4F892F9A2FAB2FBB27A7FDCF
:10065000BA959093FB018093FA019092F8018091F2
:10066000F60181110DC18091F701813009F44AC072
:1006700020F0823009F002C1B9C08091F40190915C
:10068000F5018D32914028F4109203029092FE0100
:10069000F5C08091F4019091F5018D32914060F0A8
:1006A0008091F4019091F5018935924028F490925F
:1006B00003029092FE01E2C08091F4019091F50155
:1006C0008935924058F08091F4019091F50183357D
:1006D000934020F482E080930302D0C08091F40123
:1006E0009091F5018335934008F4C8C08091F401DE
:1006F0009091F5018115944008F0C0C083E080938B
:100700000302BCC08091FA019091FB019058909334
:10071000F90180910302823061F58091F9018A3FED
:1007200018F0B9EFB093F9012091F901269D212D20
:100730001124822F8695869590E08A30910508F0E5
:10074000C501F70180839091F901969D812D1124B7
:1007500086958695849D9019112480E0B6010E94AB
:10076000EB046A3008F0632DA1E0B2E06C931882CC
:1007700085C0833009F082C04091F90150E04E5F9E
:100780005F4F9A01A1EAB0EA0E94FF04969587950F
:10079000929582958F7089279F708927E82F8630E0
:1007A00008F0E5E0D701EC939A01A1EAB0EA0E94D3
:1007B000FF0496958795929582958F7089279F70F3
:1007C0008927289E40191124E43019F4453008F097
:1007D0004250459D812D1124869586958A3008F0DA
:1007E000832DE1E0F2E08083988248C0809103028B
:1007F000982F92509230F0F4D701EC91F0E0EE0F88
:10080000FF1FEC5EFE4F0190F081E02D0995A1E005
:10081000B2E0EC91F0E0EE0FFF1FE050FF4F0190CF
:10082000F081E02D09958881813011F45D9A26C010
:100830005D9824C0823010F58090FF01859C712C5A
:100840001124769476947694E72DF0E0EE0FFF1F56
:10085000EC5EFE4F0190F081E02D0995770C872D1D
:10086000880F880F780E8718E82DF0E0EE0FFF1F35
:10087000E050FF4F0190F081E02D09959092F60134
:1008800086B1869581708093F1018091F101882372
:1008900041F08091F001811104C0809103020E9417
:1008A000EC018091F1018093F001A895A0CEEAE7D8
:1008B000F0E09081987F9083803109F138F48430A2
:1008C00091F08830B1F0823091F507C0803419F191
:1008D000803839F1803259F518C0EAE7F0E08081BC
:1008E0008160808329C0EAE7F0E0808182608083B4
:1008F00023C0EAE7F0E08081836080831DC0EAE7DF
:10090000F0E080818460808317C0EAE7F0E08081B6
:100910008560808311C0EAE7F0E080818660808393
:100920000BC0EAE7F0E080818760808305C0EAE7DA
:10093000F0E080818160808380E480937C00EAE73E
:10094000F0E08081886080838081806880837894F3
:100950008081806480830895F894E0EBF0E08081EA
:1009600082608083E1EBF0E0808187608083E0E754
:10097000F0E080818260808378940895F894219AD1
:1009800083E88093800089E080938100EFE6F0E0C7
:10099000808182608083109289001092880010927A
:1009A00085001092840078940895ECE7F0E090813F
:1009B0008770987F982B9083EAE7F0E080818064CD
:1009C0008083808186FDFDCF209178003091790071
:1009D000822F932F0895AA1BBB1B51E107C0AA1FAA
:1009E000BB1FA617B70710F0A61BB70B881F991FD0
:1009F0005A95A9F780959095BC01CD010895A29FC5
:100A0000B001B39FC001A39F01D0B29F700D811DA3
:100A10001124911D08950E94FF04B7FF0895821BC1
:080A2000930B0895F894FFCF39
:100A2800A600AE00B800C100CA00D500DF00E7008C
:100A3800F200F90053005B006200690073007C005B
:100A480086008E0097009E0000000C001400200015
:100A5800280033003C00480050005C00650070002E
:100A6800790085008B009500A000A900B400BD00A6
:100A7800CA00D400E100EB00F400020108011601ED
:100A88001C012A0134014001480152015801670143
:100A98006C017B0180018C019801A001AC01B401BB
:100AA800BC01C801D101DC01E501F001FD0106022C
:100AB80012021A0222022E0236023E024902510294
:100AC80062026A0271027E0285028F029902A30203
:100AD800AD02B502C102CE02DA02E202E902F40274
:100AE800FE020A0312031F032C0335033F034903C5
:100AF80051035D0365037103770383038F03970332
:100B0800A303AB03B303BF03C703D303DB03FF0391
:00000001FF
