:100000000C9434000C9451000C9451000C94510049
:100010000C9451000C9451000C9451000C948901E3
:100020000C9451000C9451000C9451000C9451000C
:100030000C9451000C9451000C9451000C945100FC
:100040000C9451000C9451000C9451000C945100EC
:100050000C9451000C94B1010C9451000C9451007B
:100060000C9451000C94510011241FBECFEFD4E02A
:10007000DEBFCDBF11E0A0E0B1E0E2E6F6E002C0F5
:1000800005900D92A832B107D9F721E0A8E2B1E0BE
:1000900001C01D92A133B207E1F70E94E9010C945F
:1000A0002F030C94000097B184B1981302C03D98BF
:1000B000089597B187B1981302C03D98089597B1FC
:1000C0008AB1981301C03D98089527B194B12913BE
:1000D00006C0882311F02D9A08952D98089527B110
:1000E00097B1291306C0882311F0459A08954598C1
:1000F000089527B19AB1291305C0882311F05D9A9C
:1001000008955D980895EAE7F0E09081987F9083E4
:10011000803109F138F4843091F08830B1F08230C8
:1001200091F507C0803419F1803839F1803259F5E2
:1001300018C0EAE7F0E080818160808329C0EAE7A7
:10014000F0E080818260808323C0EAE7F0E0808174
:10015000836080831DC0EAE7F0E080818460808353
:1001600017C0EAE7F0E080818560808311C0EAE78C
:10017000F0E08081866080830BC0EAE7F0E0808158
:100180008760808305C0EAE7F0E08081816080833A
:1001900080E480937C00EAE7F0E0808180628083E5
:1001A000808188608083789480818068808380816A
:1001B00080648083089585B1896385B92A988BB15D
:1001C000806C8BB908952D9A85B1827E85B95E9A2F
:1001D0005F98089585B1856385B92B985F9A5E987D
:1001E000089585B1846385B985B1867F85B98BB162
:1001F000806C8BB9089585B18C6285B985B18E7E8E
:1002000085B95E9A5F98089585B18C6185B985B18D
:100210008E7D85B98BB1806C8BB9089585B18D6168
:1002200085B92D988BB1806C8BB9089585B18063A9
:1002300085B985B1827F85B95E9A5F98089585B149
:100240008D6385B98BB1806C8BB9089585B18D6351
:1002500085B928988BB1806C8BB9089588B18C6072
:1002600088B941988BB18D618BB9089588B1817F30
:1002700088B98BB185608BB98BB1877E8BB90895B6
:1002800088B18A6088B942988BB189618BB95A98D4
:10029000089588B18A6088B942988BB18D608BB916
:1002A0005C98089588B1866088B943988BB1856061
:1002B0008BB98BB1877E8BB9089588B18E6088B970
:1002C0008BB18C608BB98BB18E7E8BB9089588B160
:1002D0008E6088B98BB18C618BB95898089588B1BC
:1002E000897F88B9439A8BB185608BB98BB1877E42
:1002F0008BB9089588B18E6088B98BB18D618BB947
:10030000089588B18E6088B98BB18D608BB95C9887
:1003100008951F920F920FB60F9211242F938F936F
:100320009F9380912E018823A1F080912F018F5FF0
:1003300080932F0190912F018BEA989F812D11249A
:100340008695282F220F820F981B90932F011092D1
:100350002E019F918F912F910F900FBE0F901F90A4
:1003600018951F920F920FB60F9211248F939F939F
:10037000809128018823A1F08091780090917900E4
:1003800092500024969587950794969587950794A3
:10039000982F802D90932D0180932C01109228018D
:1003A0009F918F910F900FBE0F901F901895F8940A
:1003B000E0EBF0E0808182608083E1EBF0E080811F
:1003C00087608083E0E7F0E08081826080837894BA
:1003D000089584B18D6384B987B18E6087B98AB17D
:1003E0008D6F8AB980E290E00E9483000E945300E2
:1003F00081E090E00E9465000E94D70184B7897F68
:1004000084BF2AE088E190E00FB6F894A895809325
:1004100060000FBE20936000FF24F394E12C0F2EA8
:10042000FDEC2F2EF02D0F2EF9E08F2EF02D0F2E3C
:10043000F5E03F2EF02D0F2EF9E2AF2EF02D0F2E0E
:10044000F9E19F2EF02DC6E6D2E00F2EF9EFBF2E78
:10045000F02D909128018F2D91118E2D80932F01D9
:100460008823A1F1A0912A01B0912B0140912C0188
:1004700050912D012EEF30E00E9428032A016624BE
:1004800057FC6094762C440C551C661C771CDC01D0
:10049000CB01840D951DA61DB71DAC01BD014058B3
:1004A0005F4F6F4F7F4FDB01CA0122F481509F4F96
:1004B000AF4FBF4F892F9A2FAB2FBB27A7FDBA9500
:1004C00090932B0180932A01F092280180912E01B4
:1004D00081119CC080912F01813069F020F0823021
:1004E00009F092C078C0359B03C0F09230018CC0F7
:1004F000E092300189C080912A0190912B0190589F
:10050000909329018091300181112CC080912901A3
:100510008A3F10F0B0922901809129018A9D812D96
:100520001124C82EC694C694D12C2AE0C216D10438
:1005300028F00F2EF9E0CF2ED12CF02D909129012B
:100540009A9D812D112486958695899D9019112457
:1005500080E0BE010E940803062F6A3008F0082DD3
:100560001E2D52C04091290150E04E5F5F4F9A010D
:10057000A1EAB0EA0E941C03969587959295829510
:100580008F7089279F708927C82E85E08C1508F405
:10059000C32C9A01A1EAB0EA0E941C0396958795A4
:1005A000929582958F7089279F70892723E3289FD2
:1005B0004019112484E0C81203C0453008F04250AD
:1005C000429DD12C11240D2D069506950A3008F078
:1005D000082D1F2D19C0EC2DF0E0EE0FFF1FEC5E73
:1005E000FE4F0190F081E02D0995E02FF0E0EE0F35
:1005F000FF1FE050FF4F0190F081E02D0995113071
:1006000011F45D9A01C05D98F0922E01A89521CF5A
:10061000AA1BBB1B51E107C0AA1FBB1FA617B70728
:1006200010F0A61BB70B881F991F5A95A9F7809544
:100630009095BC01CD010895A29FB001B39FC00168
:10064000A39F01D0B29F700D811D1124911D0895AB
:100650000E941C03B7FF0895821B930B0895F89422
:02066000FFCFCA
:100662002E0136014001490152015D0167016F010E
:100672007A018101DB00E300EA00F100FB000401E2
:080682000E0116011F01260103
:00000001FF
